:100000000C942A000C9447000C9447000C94470071
:100010000C9447000C9447000C9447000C94470044
:100020000C9447000C94350B0C9447000C94BF08BB
:100030000C9447000C9447000C9447000C94470024
:100040000C9447000C9447000C9447000C94470014
:100050000C94470011241FBECFE5D8E0DEBFCDBF12
:1000600010E0A0E6B0E0E2E7F3E302C005900D92F5
:10007000AC37B107D9F710E0ACE7B0E001C01D9292
:10008000A139B107E1F70E940C190C94B7190C942F
:100090000000EF92FF920F931F937B018C0120E0F1
:1000A00030E040E05FE40E94490388238CF0C801FF
:1000B000B70120E030E040E05FE40E94C1010E940F
:1000C000A9039B01AC01205030404040504806C07D
:1000D000C801B7010E94A9039B01AC01B901CA0183
:1000E0001F910F91FF90EF900895A0E0B0E0EBE733
:1000F000F0E00C944F19DC012B01FA019C91923035
:1001000008F439C1EB018881823008F433C194309E
:1001100069F4843009F02FC111969C91119789815F
:10012000981709F428C1A0E6B0E025C1843009F48D
:1001300021C18230A9F4923009F01DC19A01AD01AC
:1001400088E0EA010990AE01E90109929E0181501F
:10015000C1F7E201898111969C918923818308C1AD
:10016000923009F407C112962D903C901397EB0141
:100170008A819B811496AD90BD90CD90DC901797AD
:10018000EC80FD800E811F819101281B390BB90184
:1001900037FF04C066277727621B730B6032710537
:1001A0000CF061C0121613066CF537014801062EDB
:1001B00004C096948794779467940A94D2F721E0C8
:1001C00030E040E050E004C0220F331F441F551FB1
:1001D0006A95D2F721503040404050402E213F21B7
:1001E00040235123211531054105510521F021E01E
:1001F00030E040E050E079018A01E628F72808293C
:1002000019293CC0232BD1F1260E371E350146019A
:10021000062E04C096948794779467940A94D2F734
:1002200021E030E040E050E004C0220F331F441FC3
:10023000551F6A95D2F721503040404050402A2146
:100240003B214C215D21211531054105510521F04E
:1002500021E030E040E050E059016A01A628B728CB
:10026000C828D9280BC0821593052CF01C01AA249C
:10027000BB24650103C0EE24FF24870111969C91E5
:10028000D20111968C91981709F445C0992339F041
:10029000A80197012A193B094C095D0906C0A6016E
:1002A00095012E193F09400B510B57FD08C01182D3
:1002B0003382228224833583468357831DC081E0A5
:1002C00081833382228288279927DC01821B930B4A
:1002D000A40BB50B84839583A683B7830DC0220F2F
:1002E000331F441F551F24833583468357838281E0
:1002F000938101979383828324813581468157813D
:10030000DA01C9010197A109B1098F5F9F4FAF4F72
:10031000BF4328F30BC0918333822282EA0CFB1C7B
:100320000C1D1D1DE482F5820683178383E0808304
:10033000248135814681578157FF1AC0C901AA27F8
:1003400097FDA095BA2F81709070A070B0705695EF
:10035000479537952795822B932BA42BB52B848318
:100360009583A683B7838281938101969383828349
:10037000DF0101C0D201CD01CDB7DEB7E2E10C94BF
:100380006B19A0E2B0E0E7ECF1E00C945B19698333
:100390007A838B839C832D833E834F835887E9E048
:1003A000EE2EF12CEC0EFD1ECE010196B7010E943F
:1003B000D2048E010F5E1F4FCE010596B8010E9438
:1003C000D2048A8991E089278A8BC701B801AE01DE
:1003D000475E5F4F0E9475000E94FD03A096E6E015
:1003E0000C947719A0E2B0E0E8EFF1E00C945B190F
:1003F00069837A838B839C832D833E834F835887C5
:10040000F9E0EF2EF12CEC0EFD1ECE010196B701A6
:100410000E94D2048E010F5E1F4FCE010596B801D7
:100420000E94D204C701B801AE01475E5F4F0E942F
:1004300075000E94FD03A096E6E00C947719A0E2F7
:10044000B0E0E5E2F2E00C944F1969837A838B8384
:100450009C832D833E834F835887CE010196BE0136
:10046000675F7F4F0E94D204CE010596BE016F5E8A
:100470007F4F0E94D2049985923088F0898982301A
:10048000C8F0943019F4823051F404C0843029F457
:10049000923081F480E690E0C6C0923049F420E0CA
:1004A0009A858A89981321E02A87CE010996BBC0D4
:1004B000823049F420E09A858A89981321E02A8BBA
:1004C000CE014196B0C02D843E844F8458886D88FB
:1004D0007E888F88988CEE24FF248701AA24BB2471
:1004E000650140E050E060E070E0E0E0F0E0C10174
:1004F00081709070892BE9F0E60CF71C081D191D1E
:100500009A01AB012A0D3B1D4C1D5D1D80E090E062
:10051000A0E0B0E0E614F7040805190520F481E036
:1005200090E0A0E0B0E0BA01A901480F591F6A1F8E
:100530007B1FAA0CBB1CCC1CDD1C97FE08C081E0F5
:1005400090E0A0E0B0E0A82AB92ACA2ADB2A3196B6
:10055000E032F10549F0660C771C881C991C569412
:10056000479437942794C3CFFA85EA892B893C892D
:100570008B859C85280F391F2E5F3F4F17C0CA01FE
:1005800081709070892B61F016950795F794E79428
:1005900080E090E0A0E0B0E8E82AF92A0A2B1B2BC3
:1005A00076956795579547952F5F3F4F77FDE7CF36
:1005B0000CC0440F551F661F771F17FD4160EE0CDE
:1005C000FF1C001F111F21503040403090E05907A0
:1005D00090E0690790E4790760F32B8F3C8FDB0193
:1005E000CA018F779070A070B07080349105A1051A
:1005F000B10561F447FD0AC0E114F10401051105DC
:1006000029F0405C5F4F6F4F7F4F40781A8EFE1786
:1006100011F081E08A8F4D8F5E8F6F8F78A383E01A
:10062000898FCE0149960E94FD03A096E2E10C94C9
:100630006B19A8E1B0E0EFE1F3E00C945B1969837A
:100640007A838B839C832D833E834F83588789E0F5
:10065000E82EF12CEC0EFD1ECE010196B7010E9492
:10066000D2048E010F5E1F4FCE010596B8010E9485
:10067000D2048985823040F08989823028F0C70110
:10068000B8010E944A0501C08FEF6896E6E00C941D
:100690007719A8E1B0E0EFE4F3E00C945B1969830B
:1006A0007A838B839C832D833E834F83588789E095
:1006B000E82EF12CEC0EFD1ECE010196B7010E9432
:1006C000D2048E010F5E1F4FCE010596B8010E9425
:1006D000D2048985823040F08989823028F0C701B0
:1006E000B8010E944A0501C08FEF6896E6E00C94BD
:1006F0007719A8E1B0E0EFE7F3E00C945B196983A8
:100700007A838B839C832D833E834F83588789E034
:10071000E82EF12CEC0EFD1ECE010196B7010E94D1
:10072000D2048E010F5E1F4FCE010596B8010E94C4
:10073000D2048985823040F08989823028F0C7014F
:10074000B8010E944A0501C081E06896E6E00C9479
:100750007719ACE0B0E0EFEAF3E00C945F1969833D
:100760007A838B839C83CE010196BE016B5F7F4FA2
:100770000E94D2048D81823061F1823050F1843048
:1007800021F48E81882351F12EC02F81388537FDC9
:1007900020C06E812F3131051CF06623F9F023C093
:1007A0008EE190E0821B930B29853A854B855C8511
:1007B00004C056954795379527958A95D2F76623B5
:1007C000B1F050954095309521953F4F4F4F5F4F79
:1007D0000EC020E030E040E050E009C02FEF3FEFD6
:1007E0004FEF5FE704C020E030E040E050E8B9019F
:1007F000CA012C96E2E00C947B19DF92EF92FF92F3
:100800000F931F93FC01E480F58006811781D1804E
:100810008081823048F480E090E0A0E1B0E0E82AF6
:10082000F92A0A2B1B2BA5C0843009F49FC0823003
:1008300021F4EE24FF24870105C0E114F104010531
:10084000110519F4E0E0F0E096C0628173819FEF3A
:10085000623879070CF05BC022E83FEF261B370BAC
:100860002A3131052CF020E030E040E050E02AC091
:10087000B801A701022E04C0769567955795479554
:100880000A94D2F781E090E0A0E0B0E004C0880FC5
:10089000991FAA1FBB1F2A95D2F70197A109B10979
:1008A0008E219F21A023B1230097A105B10521F03E
:1008B00081E090E0A0E0B0E09A01AB01282B392B59
:1008C0004A2B5B2BDA01C9018F779070A070B07052
:1008D00080349105A105B10539F427FF09C0205CDA
:1008E0003F4F4F4F5F4F04C0215C3F4F4F4F5F4F13
:1008F000E0E0F0E02030A0E03A07A0E04A07A0E402
:100900005A0710F0E1E0F0E079018A0127C0603871
:10091000710564F5FB01E158FF4FD801C7018F77DE
:100920009070A070B07080349105A105B10539F4C4
:10093000E7FE0DC080E490E0A0E0B0E004C08FE3EB
:1009400090E0A0E0B0E0E80EF91E0A1F1B1F17FFA1
:1009500005C016950795F794E794319687E01695AC
:100960000795F794E7948A95D1F705C0EE24FF2404
:100970008701EFEFF0E06E2F679566276795902F60
:100980009F77D794DD24D7948E2F8695492F462BB9
:10099000582F5D29B701CA011F910F91FF90EF9069
:1009A000DF900895FC01DB01408151812281622F9B
:1009B0006F7770E0221F2227221F9381892F880FD3
:1009C000822B282F30E0991F9927991F11969C930D
:1009D000119721153105A9F54115510561057105DD
:1009E00011F482E037C082E89FEF13969C938E93B8
:1009F00012979A01AB0167E0220F331F441F551F66
:100A00006A95D1F783E08C930DC0220F331F441FEA
:100A1000551F12968D919C911397019713969C9355
:100A20008E931297203080E0380780E0480780E4FA
:100A3000580758F314962D933D934D935C93179755
:100A400008952F3F310579F4411551056105710570
:100A500019F484E08C93089564FF03C081E08C93C3
:100A600012C01C9210C02F57304013963C932E9307
:100A7000129783E08C9387E0440F551F661F771F02
:100A80008A95D1F7706414964D935D936D937C9322
:100A9000179708951F93DC01FB019C91923008F495
:100AA00047C08081823008F443C0943051F41196DD
:100AB0001C91843099F58181682F70E0611B710968
:100AC0003FC0843021F0923031F48230B9F181811D
:100AD000882389F12DC011961C9111978230F1F075
:100AE00081811817D9F412962D913C911397828128
:100AF00093818217930794F028173907BCF0149656
:100B00008D919D910D90BC91A02D248135814681C0
:100B10005781281739074A075B0718F4112341F05A
:100B20000AC082179307A407B50740F4112319F0F0
:100B300061E070E005C06FEF7FEF02C060E070E041
:100B4000CB011F910895DF93CF9300D0CDB7DEB7CF
:100B50009A838983E4E2F0E01382A4E2B0E0E4E265
:100B6000F0E08281877F12968C93A4E2B0E0E4E209
:100B7000F0E08281982F987FE981FA818381892B27
:100B800012968C93A4E2B0E0E4E2F0E08381282F97
:100B90002F73E981FA818181882F90E00024969556
:100BA00087950794969587950794982F802D822B8B
:100BB00013968C93A4E2B0E0E4E2F0E08381282F66
:100BC0002F7DE981FA818281882F90E0880F991F1B
:100BD00082959295907F9827807F9827822B1396F5
:100BE0008C93A4E2B0E0E4E2F0E08281982F9F7D54
:100BF000E981FA818481892B12968C93A4E2B0E07A
:100C0000E4E2F0E08281806812968C9312970F9054
:100C10000F90CF91DF910895DF93CF9300D0CDB7A0
:100C2000DEB79A838983A4E2B0E0E4E2F0E0838156
:100C3000982F907EE981FA8180818770892B1396A5
:100C40008C93A4E2B0E0E4E2F0E08281806412964A
:100C50008C931297E4E2F0E08281882F90E080711B
:100C600090700097B9F3A4E2B0E0E4E2F0E0828192
:100C7000806112968C931297E4E2F0E08081882FD5
:100C800090E00F900F90CF91DF910895DF93CF9375
:100C900000D0CDB7DEB79A838983A4E2B0E0E4E266
:100CA000F0E08381982F907EE981FA8180818770BE
:100CB000892B13968C93A0E5B0E0E0E5F0E080810D
:100CC000282F2F71E981FA818581882F90E0880F84
:100CD000991F82959295907F9827807F9827822BE5
:100CE0008C93A4E2B0E0E4E2F0E0828188601296A6
:100CF0008C93A4E2B0E0E4E2F0E08281806112969D
:100D00008C9312970F900F90CF91DF910895DF93FE
:100D1000CF9300D000D000D0CDB7DEB79A838983BF
:100D20006B834C838B81282F30E03E832D838D8114
:100D30009E818330910509F451C02D813E8124307C
:100D400031057CF48D819E818130910571F12D8179
:100D50003E8122303105ACF58D819E810097D1F026
:100D600081C02D813E812530310509F452C08D812D
:100D70009E81853091050CF43FC02D813E81263047
:100D8000310509F454C08D819E818730910509F4A5
:100D90005DC068C08C818170E981FA81982F917063
:100DA00081818E7F892B81835DC08C818170E981F7
:100DB000FA818170982F990F81818D7F892B818392
:100DC00051C08C818170E981FA818170982F990FCF
:100DD000990F81818B7F892B818344C08C818170A5
:100DE000E981FA818170982F990F990F990F81816C
:100DF000877F892B818336C08C818170E981FA815C
:100E00008170982F9295907F81818F7E892B81832D
:100E100029C08C818170E981FA818170982F929527
:100E2000990F907E81818F7D892B81831BC08C815E
:100E30008170E981FA818170982F9295990F990FAD
:100E4000907C81818F7B892B81830CC08C81817008
:100E5000E981FA81982F97959927979581818F77C6
:100E6000892B818326960FB6F894DEBF0FBECDBFC7
:100E7000CF91DF910895DF93CF9300D000D000D0C1
:100E8000CDB7DEB79A8389836B834C838B81282F00
:100E900030E03E832D838D819E818330910509F45E
:100EA00051C02D813E81243031057CF48D819E819D
:100EB0008130910571F12D813E8122303105ACF5F3
:100EC0008D819E810097D1F081C02D813E8125309A
:100ED000310509F452C08D819E81853091050CF455
:100EE0003FC02D813E812630310509F454C08D81EB
:100EF0009E818730910509F45DC068C08C81817046
:100F0000E981FA81982F917082818E7F892B82836B
:100F10005DC08C818170E981FA818170982F990F71
:100F200082818D7F892B828351C08C818170E98180
:100F3000FA818170982F990F990F82818B7F892B6D
:100F4000828344C08C818170E981FA818170982FFD
:100F5000990F990F990F8281877F892B828336C0E1
:100F60008C818170E981FA818170982F9295907FB0
:100F700082818F7E892B828329C08C818170E98157
:100F8000FA818170982F9295990F907E82818F7D42
:100F9000892B82831BC08C818170E981FA818170E9
:100FA000982F9295990F990F907C82818F7B892B36
:100FB00082830CC08C818170E981FA81982F97958A
:100FC0009927979582818F77892B828326960FB6F2
:100FD000F894DEBF0FBECDBFCF91DF910895DF93B0
:100FE000CF9300D000D000D0CDB7DEB79B838A83EB
:100FF0006C8319828C81282F30E03E832D838D8174
:101000009E818330910509F43EC02D813E812430BC
:1010100031057CF48D819E818130910529F12D81EE
:101020003E81223031053CF58D819E810097B1F0E3
:1010300055C02D813E8125303105B1F18D819E81D4
:10104000853091054CF12D813E8126303105A9F185
:101050008D819E8187309105D1F140C0EA81FB816D
:101060008081817089833AC0EA81FB818081869585
:101070008170898333C0EA81FB8180818695869562
:10108000817089832BC0EA81FB818081869586955A
:1010900086958170898322C0EA81FB818081829557
:1010A0008F70817089831AC0EA81FB81808182956B
:1010B000869587708170898311C0EA81FB81808168
:1010C00082958695869583708170898307C0EA81B1
:1010D000FB818081881F8827881F898389812696C4
:1010E0000FB6F894DEBF0FBECDBFCF91DF9108954C
:1010F000DF93CF9300D00F92CDB7DEB79A83898369
:101100006B83E981FA818B8181830F900F900F901F
:10111000CF91DF910895DF93CF9300D00F92CDB799
:10112000DEB79A8389836B83E981FA818B8182831D
:101130000F900F900F90CF91DF910895DF93CF9391
:1011400000D0CDB7DEB79A838983E981FA818081A7
:101150000F900F90CF91DF910895DF93CF9300D040
:10116000CDB7DEB79A83898389819A8190937D0078
:1011700080937C000F900F90CF91DF9108951F9284
:101180000F920FB60F9211242F933F934F935F93BB
:101190006F937F938F939F93AF93BF93EF93FF933F
:1011A000DF93CF93CDB7DEB780917C0090917D0027
:1011B000009761F0AFE5B0E0EFE5F0E080818F7778
:1011C0008C93E0917C00F0917D000995CF91DF91A7
:1011D000FF91EF91BF91AF919F918F917F916F910F
:1011E0005F914F913F912F910F900FBE0F901F90E5
:1011F0001895DF93CF9300D000D00F92CDB7DEB714
:101200009A838983E981FA818081282F30E03D83A8
:101210002C838C819D8181309105B1F12C813D81A0
:10122000223031052CF48C819D81009771F080C0B3
:101230002C813D812230310509F440C08C819D8193
:101240008330910509F45BC073C0A2E5B0E0E2E52C
:10125000F0E08181806811968C93A2E5B0E0E2E530
:10126000F0E08181877F11968C93A2E5B0E0E2E502
:10127000F0E081818F7B11968C93A2E5B0E0E9814B
:10128000FA8183818C9354C0A2E5B0E0E2E5F0E0FE
:1012900081818F7711968C93A2E5B0E0E2E5F0E0D2
:1012A0008181877F11968C93A2E5B0E0E2E5F0E0C2
:1012B0008181806411968C9311973AC0A2E5B0E0C9
:1012C000E2E5F0E08181806811968C93A2E5B0E0C0
:1012D000E2E5F0E08181886011968C93A2E5B0E0B0
:1012E000E2E5F0E081818F7B11968C93A2E5B0E07E
:1012F000E981FA8182811A968C931A9719C0A2E526
:10130000B0E0E2E5F0E081818F7711968C93A2E561
:10131000B0E0E2E5F0E08181886011968C93A2E56F
:10132000B0E0E2E5F0E08181806411968C93119742
:10133000E981FA818081813029F0E981FA81808117
:10134000833039F4E981FA818181813011F41B8283
:1013500025C0A2E5B0E0E2E5F0E08181282F2F7CF6
:10136000E981FA818181882F90E082959295907F22
:101370009827807F9827822B11968C93A2E5B0E066
:10138000E2E5F0E08181982F987FE981FA818481FC
:10139000892B11968C93119792E09B838B810F90F0
:1013A0000F900F900F900F90CF91DF910895DF93E2
:1013B000CF9300D0CDB7DEB79A838983A2E5B0E0A2
:1013C000E2E5F0E08181982F987FE981FA818481BC
:1013D000892B11968C9311970F900F90CF91DF91DD
:1013E0000895DF93CF93CDB7DEB7A2E5B0E0E2E595
:1013F000F0E08181887F11968C931197CF91DF91D6
:101400000895DF93CF93CDB7DEB7CF91DF910895E5
:10141000DF93CF93CDB7DEB7CF91DF910895DF9300
:10142000CF9300D000D000D0CDB7DEB79A838983A8
:101430007C836B83AFE5B0E0EFE5F0E080818F77F0
:101440008C93E981FA818081282F30E03E832D83BF
:101450008D819E81009731F02D813E8122303105B2
:1014600049F00FC0A9E5B0E0E9E5F0E080818160D6
:101470008C9307C0A9E5B0E0E9E5F0E080818260E7
:101480008C938B819C810E94AD08AFE5B0E0EFE5C5
:10149000F0E0808180688C9326960FB6F894DEBFCA
:1014A0000FBECDBFCF91DF910895DF93CF93CDB71E
:1014B000DEB7A9E5B0E0E9E5F0E080818E7F8C93AE
:1014C000A9E5B0E0E9E5F0E080818D7F8C93CF91D4
:1014D000DF910895DF93CF93CDB7DEB72F970FB687
:1014E000F894DEBF0FBECDBF89837B836A8382E51C
:1014F00090E09F878E878981882F90E0982F88279A
:1015000024E630E0B9010E942819CB0101979D879C
:101510008C87EC85FD85FF233CF48C859D8590951B
:1015200081959F4F9D878C878C85EE85FF8582876F
:10153000EA81FB818181823071F582E590E09B87B1
:101540008A878981482F50E0CA019C01220F331FEE
:10155000C9019695982F882797958795821B930B9D
:10156000840F951F24E630E0B9010E942819CB01B1
:10157000019799878887E885F985FF233CF488855A
:101580009985909581959F4F998788878885EA8569
:10159000FB8582872AC0EA81FB818181833029F51E
:1015A00082E590E09F838E838981882F90E0982F39
:1015B000882724E630E0B9010E942819CB019C015C
:1015C0008FEF90E0821B930B9D838C83EC81FD81D8
:1015D000FF233CF48C819D81909581959F4F9D8345
:1015E0008C838C81EE81FF81828782E02F960FB6FB
:1015F000F894DEBF0FBECDBFCF91DF910895DF938A
:10160000CF930F92CDB7DEB78983E2E5F0E0898111
:10161000482F50E0CA019C01220F331FC901969543
:10162000982F882797958795821B930B840F951F7A
:1016300024E630E0B9010E942819CB0182870F907F
:10164000CF91DF910895DF93CF9300D0CDB7DEB770
:101650009A83898389819A8190937F0080937E0009
:101660000F900F90CF91DF9108951F920F920FB6B8
:101670000F9211242F933F934F935F936F937F9318
:101680008F939F93AF93BF93EF93FF93DF93CF938A
:10169000CDB7DEB780917E0090917F00009761F01A
:1016A000AFE5B0E0EFE5F0E080818F778C93E091DB
:1016B0007E00F0917F000995CF91DF91FF91EF912E
:1016C000BF91AF919F918F917F916F915F914F915A
:1016D0003F912F910F900FBE0F901F901895DF93A1
:1016E000CF9300D000D0CDB7DEB79A838983E9814C
:1016F000FA818081282F30E03C832B838B819C8171
:101700008630910509F438C12B813C8127303105A1
:1017100024F58B819C818230910509F49CC02B813A
:101720003C812330310564F48B819C81009709F45E
:1017300045C02B813C812130310509F46AC034C297
:101740008B819C818430910509F4C9C02B813C8137
:10175000253031050CF0EEC0A0C08B819C818B3010
:10176000910509F491C12B813C812C3031059CF409
:101770008B819C818930910509F442C12B813C8188
:101780002A3031050CF05EC18B819C818830910537
:1017900009F414C109C22B813C812E30310509F4B2
:1017A000C0C18B819C818F30910509F4DCC12B81F4
:1017B0003C812C30310509F489C1F6C1A6E4B0E0C2
:1017C000E6E4F0E081858E7F19968C93A6E4B0E084
:1017D000E6E4F0E081858D7F19968C93A6E4B0E075
:1017E000E6E4F0E08185877F19968C93A6E4B0E06B
:1017F000E6E4F0E081858F7E19968C93A6E4B0E054
:10180000E981FA818481958117969C938E9316972E
:10181000CBC1A6E4B0E0E6E4F0E0818581601996F2
:101820008C93A6E4B0E0E6E4F0E081858D7F199624
:101830008C93A6E4B0E0E6E4F0E08185877F19961A
:101840008C93A6E4B0E0E6E4F0E081858F7E199603
:101850008C931997A9C1A6E4B0E0E6E4F0E0818595
:101860008E7F19968C93A6E4B0E0E6E4F0E08185E3
:10187000826019968C93A6E4B0E0E6E4F0E08185FE
:10188000877F19968C93A6E4B0E0E6E4F0E08185CA
:101890008F7E19968C93199787C1A6E4B0E0E6E491
:1018A000F0E08185816019968C93A6E4B0E0E6E4CF
:1018B000F0E08185826019968C93A6E4B0E0E6E4BE
:1018C000F0E08185877F19968C93A6E4B0E0E6E48A
:1018D000F0E081858F7E19968C93199765C1A6E4F7
:1018E000B0E0E6E4F0E081858E7F19968C93A6E463
:1018F000B0E0E6E4F0E081858D7F19968C93A6E454
:10190000B0E0E6E4F0E08185886019968C93A6E467
:10191000B0E0E6E4F0E081858F7E19968C93A6E432
:10192000B0E0E981FA818281938117969C938E932E
:1019300016973AC1A6E4B0E0E6E4F0E08185816064
:1019400019968C93A6E4B0E0E6E4F0E081858D7F03
:1019500019968C93A6E4B0E0E6E4F0E08185886017
:1019600019968C93A6E4B0E0E6E4F0E081858F7EE2
:1019700019968C93199718C1A6E4B0E0E6E4F0E05C
:1019800081858E7F19968C93A6E4B0E0E6E4F0E0C2
:101990008185826019968C93A6E4B0E0E6E4F0E0DD
:1019A0008185886019968C93A6E4B0E0E6E4F0E0C7
:1019B00081858F7E19968C931997F6C0A6E4B0E0C6
:1019C000E6E4F0E081858E7F19968C93A6E4B0E082
:1019D000E6E4F0E081858D7F19968C93A6E4B0E073
:1019E000E6E4F0E08185877F19968C93A6E4B0E069
:1019F000E6E4F0E08185806119968C931997D4C054
:101A0000A6E4B0E0E6E4F0E08185816019968C936D
:101A1000A6E4B0E0E6E4F0E081858D7F19968C9332
:101A2000A6E4B0E0E6E4F0E08185877F19968C9328
:101A3000A6E4B0E0E6E4F0E08185806119968C933D
:101A40001997B2C0A6E4B0E0E6E4F0E081858E7FAD
:101A500019968C93A6E4B0E0E6E4F0E0818582601C
:101A600019968C93A6E4B0E0E6E4F0E08185877FE8
:101A700019968C93A6E4B0E0E6E4F0E081858061FD
:101A800019968C93199790C0A6E4B0E0E6E4F0E0D4
:101A90008185816019968C93A6E4B0E0E6E4F0E0DD
:101AA0008185826019968C93A6E4B0E0E6E4F0E0CC
:101AB0008185877F19968C93A6E4B0E0E6E4F0E098
:101AC0008185806119968C9319976EC0A6E4B0E069
:101AD000E6E4F0E081858E7F19968C93A6E4B0E071
:101AE000E6E4F0E081858D7F19968C93A6E4B0E062
:101AF000E6E4F0E08185886019968C93A6E4B0E076
:101B0000E6E4F0E08185806119968C93A6E4B0E06C
:101B1000E981FA818281938117969C938E9316971F
:101B200043C0A6E4B0E0E6E4F0E081858E7F19963C
:101B30008C93A6E4B0E0E6E4F0E08185826019963B
:101B40008C93A6E4B0E0E6E4F0E081858860199625
:101B50008C93A6E4B0E0E6E4F0E08185806119961C
:101B60008C93199721C0A6E4B0E0E6E4F0E081850B
:101B7000816019968C93A6E4B0E0E6E4F0E08185FC
:101B8000826019968C93A6E4B0E0E6E4F0E08185EB
:101B9000886019968C93A6E4B0E0E6E4F0E08185D5
:101BA000806119968C931997E981FA81878188233E
:101BB000D1F4A6E4B0E0E6E4F0E08185282F2F73AD
:101BC000E981FA818181882F90E00024969587959C
:101BD0000794969587950794982F802D822B1996B8
:101BE0008C93199715C0A6E4B0E0E6E4F0E0818597
:101BF000282F2F7CE981FA818181882F90E08295BE
:101C00009295907F9827807F9827822B19968C93A6
:101C1000A6E4B0E0E6E4F0E08085982F987FE981C3
:101C2000FA818681892B18968C93189782E00F9001
:101C30000F900F900F90CF91DF910895DF93CF9386
:101C400000D000D000D0CDB7DEB79A8389837C83E3
:101C50006B83AFE5B0E0EFE5F0E080818F778C93A8
:101C6000E981FA818081282F30E03E832D838D81A8
:101C70009E818430910531F12D813E812C303105DA
:101C800061F08D819E81009789F5A9E5B0E0E9E5D5
:101C9000F0E0808184608C9329C0E981FA8187819A
:101CA000882341F4A9E5B0E0E9E5F0E080818061B6
:101CB0008C931CC0A9E5B0E0E9E5F0E08081886084
:101CC0008C9314C0E981FA818781882341F4A9E5C6
:101CD000B0E0E9E5F0E0808180618C9307C0A9E580
:101CE000B0E0E9E5F0E0808188608C938B819C8195
:101CF0000E94230BAFE5B0E0EFE5F0E08081806863
:101D00008C9326960FB6F894DEBF0FBECDBFCF9151
:101D1000DF9108950F931F93DF93CF93CDB7DEB775
:101D2000C455D0400FB6F894DEBF0FBECDBF89E3D7
:101D300090E063E041E00E94870689E390E062E082
:101D400041E00E94870686E390E060E041E00E9467
:101D5000870686E390E061E041E00E94870686E323
:101D600090E062E041E00E94870686E390E064E054
:101D700041E00E948706FE01EF5AFF4F80E090E0AD
:101D8000A0EFB1E480839183A283B3838E01035BD0
:101D90001F4FFE01EF5AFF4F608171818281938155
:101DA00020E030E04AE755E40E941F02DC01CB014D
:101DB000F80180839183A283B383FE01E35BFF4F2D
:101DC000608171818281938120E030E040E85FE3AF
:101DD0000E947903882344F4FE01E55BFF4F81E014
:101DE00090E09183808364C0FE01E35BFF4F6081DC
:101DF00071818281938120E03FEF4FE757E40E9499
:101E0000190318160CF043C0FE01EF5AFF4F608112
:101E100071818281938120E030E040E251E40E94B0
:101E20001F02DC01CB018E01055B1F4FBC01CD0100
:101E30000E944900DC01CB01F801918380831FC01F
:101E4000FE01E75BFF4F80E991E091838083FE0113
:101E5000E75BFF4F808191810197F1F7FE01E75B1E
:101E6000FF4F91838083DE01A55BBF4FFE01E55BE1
:101E7000FF4F80819181019711969C938E93FE0173
:101E8000E55BFF4F808191810097D1F627C08E01DD
:101E9000055B1F4FFE01E35BFF4F60817181828113
:101EA00093810E944900DC01CB01F801918380837A
:101EB000DE01A95BBF4FFE01E55BFF4F8081918191
:101EC0008D939C93FE01E95BFF4F80819181019787
:101ED000F1F7FE01E95BFF4F9183808389E390E096
:101EE00063E040E00E943B0786E390E060E040E072
:101EF0000E943B0786E390E061E041E00E943B07DF
:101F000086E390E062E040E00E943B0786E390E0D9
:101F100064E040E00E943B07FE01ED5BFF4F80E084
:101F200090E0A0E8BFE380839183A283B3838E0116
:101F3000015C1F4FFE01ED5BFF4F6081718182816B
:101F4000938120E030E04AE755E40E941F02DC0163
:101F5000CB01F80180839183A283B383FE01FF96B6
:101F6000608171818281938120E030E040E85FE30D
:101F70000E94790388232CF481E090E09EAF8DAF1E
:101F800046C0FE01FF96608171818281938120E0CD
:101F90003FEF4FE757E40E941903181664F5FE015E
:101FA000ED5BFF4F608171818281938120E030E0A1
:101FB00040E251E40E941F02DC01CB01BC01CD01D3
:101FC0000E944900DC01CB019EAF8DAF0FC080E9BC
:101FD00091E09CAF8BAF8BAD9CAD0197F1F79CAFBF
:101FE0008BAF8DAD9EAD01979EAF8DAF8DAD9EAD8C
:101FF000009769F716C0FE01FF96608171818281AA
:1020000093810E944900DC01CB019EAF8DAF8DAD65
:102010009EAD9AAF89AF89AD9AAD0197F1F79AAFAE
:1020200089AF88E20E94131580E090E0A0E8BFE34A
:102030008DAB9EABAFABB8AF6DA97EA98FA998ADA4
:1020400020E030E04AE755E40E941F02DC01CB01AA
:1020500089AB9AABABABBCAB69A97AA98BA99CA99C
:1020600020E030E040E85FE30E94790388232CF40D
:1020700081E090E098AB8FA73FC069A97AA98BA9AE
:102080009CA920E03FEF4FE757E40E941903181680
:102090004CF56DA97EA98FA998AD20E030E040E213
:1020A00051E40E941F02DC01CB01BC01CD010E9462
:1020B0004900DC01CB0198AB8FA70FC080E991E00C
:1020C0009EA78DA78DA59EA50197F1F79EA78DA729
:1020D0008FA598A9019798AB8FA78FA598A900976E
:1020E00069F714C069A97AA98BA99CA90E94490023
:1020F000DC01CB0198AB8FA78FA598A99CA78BA7D4
:102100008BA59CA50197F1F79CA78BA78CE00E945B
:10211000131580E090E0A0E8BFE38FA398A7A9A7DC
:10212000BAA76FA178A589A59AA520E030E04AE773
:1021300055E40E941F02DC01CB018BA39CA3ADA33D
:10214000BEA36BA17CA18DA19EA120E030E040E860
:102150005FE30E94790388232CF481E090E09AA346
:1021600089A33FC06BA17CA18DA19EA120E03FEF80
:102170004FE757E40E94190318164CF56FA178A594
:1021800089A59AA520E030E040E251E40E941F02B8
:10219000DC01CB01BC01CD010E944900DC01CB0177
:1021A0009AA389A30FC080E991E098A38F8F8F8DA8
:1021B00098A10197F1F798A38F8F89A19AA1019710
:1021C0009AA389A389A19AA1009769F714C06BA16A
:1021D0007CA18DA19EA10E944900DC01CB019AA3A4
:1021E00089A389A19AA19E8F8D8F8D8D9E8D019738
:1021F000F1F79E8F8D8F81E00E94131580E090E0B3
:10220000A0E8BFE3898F9A8FAB8FBC8F698D7A8DE1
:102210008B8D9C8D20E030E04AE755E40E941F0240
:10222000DC01CB018D8B9E8BAF8BB88F6D897E8946
:102230008F89988D20E030E040E85FE30E947903C9
:1022400088232CF481E090E09C8B8B8B3FC06D89C0
:102250007E898F89988D20E03FEF4FE757E40E94F9
:10226000190318164CF5698D7A8D8B8D9C8D20E0A5
:1022700030E040E251E40E941F02DC01CB01BC01CE
:10228000CD010E944900DC01CB019C8B8B8B0FC0E0
:1022900080E991E09A8B898B89899A890197F1F776
:1022A0009A8B898B8B899C8901979C8B8B8B8B89D3
:1022B0009C89009769F714C06D897E898F89988DF4
:1022C0000E944900DC01CB019C8B8B8B8B899C8904
:1022D000988B8F878F8598890197F1F7988B8F87D7
:1022E00082E00E94131580E090E0A0E8BFE38B87B6
:1022F0009C87AD87BE876B857C858D859E8520E01C
:1023000030E04AE755E40E941F02DC01CB018F83D5
:102310009887A987BA876F81788589859A8520E013
:1023200030E040E85FE30E94790388232CF481E0E9
:1023300090E09E838D833FC06F81788589859A85E3
:1023400020E03FEF4FE757E40E94190318164CF5C1
:102350006B857C858D859E8520E030E040E251E4F0
:102360000E941F02DC01CB01BC01CD010E9449008B
:10237000DC01CB019E838D830FC080E991E09C83BB
:102380008B838B819C810197F1F79C838B838D815B
:102390009E8101979E838D838D819E81009769F731
:1023A00014C06F81788589859A850E944900DC0177
:1023B000CB019E838D838D819E819A8389838981C0
:1023C0009A810197F1F79A838983CC5ADF4F0FB630
:1023D000F894DEBF0FBECDBFCF91DF911F910F915B
:1023E00008950F931F93DF93CF93CDB7DEB7C754F4
:1023F000D0400FB6F894DEBF0FBECDBFFE01E95B43
:10240000FF4F808389E390E062E040E00E943B0759
:10241000FE01ED5BFF4F80E090E0A0E8BFE380832A
:102420009183A283B3838E01015C1F4FFE01ED5B9C
:10243000FF4F608171818281938120E030E04AE723
:1024400055E40E941F02DC01CB01F80180839183D7
:10245000A283B383FE01FF966081718182819381A3
:1024600020E030E040E85FE30E94790388232CF409
:1024700081E090E09EAF8DAF46C0FE01FF96608187
:1024800071818281938120E03FEF4FE757E40E9402
:102490001903181664F5FE01ED5BFF4F6081718131
:1024A0008281938120E030E040E251E40E941F02EB
:1024B000DC01CB01BC01CD010E944900DC01CB0154
:1024C0009EAF8DAF0FC080E991E09CAF8BAF8BAD1D
:1024D0009CAD0197F1F79CAF8BAF8DAD9EAD019791
:1024E0009EAF8DAF8DAD9EAD009769F716C0FE0112
:1024F000FF9660817181828193810E944900DC0195
:10250000CB019EAF8DAF8DAD9EAD9AAF89AF89AD3A
:102510009AAD0197F1F79AAF89AFFE01E95BFF4FE2
:102520008081882F90E08071907095958795959522
:1025300087959595879595958795282F86E390E0C3
:1025400060E0422F0E943B07FE01E95BFF4F808164
:10255000882F90E0807290709595879595958795D6
:10256000959587959595879595958795282F86E3D9
:1025700090E061E0422F0E943B07FE01E95BFF4FC4
:102580008081882F90E080749070082E892F000C35
:10259000881F990B000C881F991F282F86E390E055
:1025A00062E0422F0E943B07FE01E95BFF4F808102
:1025B000282F221F2227221F86E390E064E0422F6B
:1025C0000E943B0789E390E062E041E00E943B0704
:1025D00080E090E0A0E8BFE38DAB9EABAFABB8AFBF
:1025E0006DA97EA98FA998AD20E030E04AE755E4B7
:1025F0000E941F02DC01CB0189AB9AABABABBCAB39
:1026000069A97AA98BA99CA920E030E040E85FE3A2
:102610000E94790388232CF481E090E098AB8FA787
:102620003FC069A97AA98BA99CA920E03FEF4FE799
:1026300057E40E94190318164CF56DA97EA98FA9BD
:1026400098AD20E030E040E251E40E941F02DC013E
:10265000CB01BC01CD010E944900DC01CB0198AB4C
:102660008FA70FC080E991E09EA78DA78DA59EA59D
:102670000197F1F79EA78DA78FA598A9019798AB11
:102680008FA78FA598A9009769F714C069A97AA99F
:102690008BA99CA90E944900DC01CB0198AB8FA7B4
:1026A0008FA598A99CA78BA78BA59CA50197F1F74F
:1026B0009CA78BA789E390E062E040E00E943B0783
:1026C00080E090E0A0E8BFE38FA398A7A9A7BAA7EE
:1026D0006FA178A589A59AA520E030E04AE755E4E6
:1026E0000E941F02DC01CB018BA39CA3ADA3BEA360
:1026F0006BA17CA18DA19EA120E030E040E85FE3CA
:102700000E94790388232CF481E090E09AA389A3A6
:102710003FC06BA17CA18DA19EA120E03FEF4FE7C0
:1027200057E40E94190318164CF56FA178A589A5E6
:102730009AA520E030E040E251E40E941F02DC0153
:10274000CB01BC01CD010E944900DC01CB019AA361
:1027500089A30FC080E991E098A38F8F8F8D98A1F6
:102760000197F1F798A38F8F89A19AA101979AA356
:1027700089A389A19AA1009769F714C06BA17CA1D4
:102780008DA19EA10E944900DC01CB019AA389A3DF
:1027900089A19AA19E8F8D8F8D8D9E8D0197F1F7C6
:1027A0009E8F8D8FFE01E95BFF4F8081282F217066
:1027B00086E390E060E0422F0E943B07FE01E95B68
:1027C000FF4F8081882F90E082709070959587955B
:1027D000282F86E390E061E0422F0E943B07FE0134
:1027E000E95BFF4F8081882F90E084709070959511
:1027F000879595958795282F86E390E062E0422F94
:102800000E943B07FE01E95BFF4F8081882F90E02B
:1028100088709070959587959595879595958795EE
:10282000282F86E390E064E0422F0E943B0789E373
:1028300090E062E041E00E943B0780E090E0A0E889
:10284000BFE3898F9A8FAB8FBC8F698D7A8D8B8D0B
:102850009C8D20E030E04AE755E40E941F02DC0135
:10286000CB018D8B9E8BAF8BB88F6D897E898F89C5
:10287000988D20E030E040E85FE30E9479038823F0
:102880002CF481E090E09C8B8B8B3FC06D897E891E
:102890008F89988D20E03FEF4FE757E40E9419039E
:1028A00018164CF5698D7A8D8B8D9C8D20E030E06B
:1028B00040E251E40E941F02DC01CB01BC01CD01CA
:1028C0000E944900DC01CB019C8B8B8B0FC080E9FF
:1028D00091E09A8B898B89899A890197F1F79A8B74
:1028E000898B8B899C8901979C8B8B8B8B899C898D
:1028F000009769F714C06D897E898F89988D0E9431
:102900004900DC01CB019C8B8B8B8B899C89988B3C
:102910008F878F8598890197F1F7988B8F8789E347
:1029200090E062E040E00E943B0780E090E0A0EA97
:10293000B0E48B879C87AD87BE876B857C858D8552
:102940009E8520E030E04AE755E40E941F02DC014A
:10295000CB018F839887A987BA876F81788589850E
:102960009A8520E030E040E85FE30E947903882305
:102970002CF481E090E09E838D833FC06F81788549
:1029800089859A8520E03FEF4FE757E40E941903BD
:1029900018164CF56B857C858D859E8520E030E092
:1029A00040E251E40E941F02DC01CB01BC01CD01D9
:1029B0000E944900DC01CB019E838D830FC080E91A
:1029C00091E09C838B838B819C810197F1F79C83A1
:1029D0008B838D819E8101979E838D838D819E81C6
:1029E000009769F714C06F81788589859A850E9460
:1029F0004900DC01CB019E838D838D819E819A836A
:102A0000898389819A810197F1F79A838983C95BC8
:102A1000DF4F0FB6F894DEBF0FBECDBFCF91DF9171
:102A20001F910F910895DF93CF930F92CDB7DEB72B
:102A3000898389E390E063E040E00E943B0789815D
:102A40000E94F1110F90CF91DF910895DF93CF9302
:102A50000F92CDB7DEB7898389E390E063E041E070
:102A60000E943B0789810E94F1110F90CF91DF9165
:102A70000895DF93CF9300D00F92CDB7DEB79B833D
:102A80008A8319820EC08981282F30E08A819B8138
:102A9000FC01E20FF31F80810E94261589818F5F60
:102AA00089838981282F30E08A819B81FC01E20F94
:102AB000F31F8081882339F70F900F900F90CF91EB
:102AC000DF910895DF93CF93CDB7DEB764970FB64C
:102AD000F894DEBF0FBECDBF698B7A8B8B8B9C8B3E
:102AE00089899A899E012F5F3F4FB9014AE050E0E2
:102AF0000E948619CE0101960E94391564960FB680
:102B0000F894DEBF0FBECDBFCF91DF910895DF9364
:102B1000CF9300D000D0CDB7DEB78A8319828A81E7
:102B2000282F30E03C832B838B819C81883091055A
:102B300009F470C02B813C81293031055CF58B8113
:102B40009C818430910509F459C02B813C8125304A
:102B500031059CF48B819C818230910509F448C039
:102B60002B813C81233031050CF045C08B819C8149
:102B70008130910509F439C067C02B813C81263032
:102B8000310509F441C08B819C81873091050CF09F
:102B90003EC037C02B813C812C30310509F446C042
:102BA0008B819C818D3091055CF42B813C812A3096
:102BB0003105B1F18B819C818B309105A4F52DC03D
:102BC0002B813C812E303105B9F18B819C818E3077
:102BD00091057CF12B813C812F30310579F18B817E
:102BE0009C818031910569F12FC087E089832EC0D7
:102BF00088E089832BC089E0898328C085E28983A6
:102C000025C084E0898322C085E089831FC086E0D7
:102C100089831CC08AE2898319C081E0898316C038
:102C200082E0898313C083E0898310C08DE28983A9
:102C30000DC08DE089830AC0198208C08DE38983A5
:102C400005C08BE2898302C08A81898389810F90C4
:102C50000F900F900F90CF91DF910895DF93CF9356
:102C600000D000D000D0CDB7DEB71A8219821B8207
:102C70007AC080E390E060E00E9478088B81282F82
:102C800030E03E832D838D819E8181309105F1F06E
:102C90002D813E81223031052CF48D819E8100975B
:102CA00061F02EC02D813E8122303105C1F08D8131
:102CB0009E8183309105E1F023C080E390E067E0DE
:102CC00041E00E9487068FE789831AC080E390E085
:102CD00066E041E00E9487068FEB898311C080E3A4
:102CE00090E065E041E00E9487068FED898308C08F
:102CF00080E390E063E041E00E94870687EF8983EC
:102D000080E390E069810E948B081C8226C095E0D8
:102D10008C81292F281B83E390E0622F0E94EF070C
:102D20008823C1F48C81882F90E0880F991F880F29
:102D3000991F982F8B81890F8F5F0E9487158A8337
:102D40008A8126960FB6F894DEBF0FBECDBFCF9115
:102D5000DF9108958C818F5F8C838C818430B8F2F1
:102D60008B818F5F8B838B81843008F482CF7FCF00
:102D7000DF93CF93CDB7DEB786E390E060E041E02C
:102D80000E94870686E390E061E041E00E948706AA
:102D900086E390E062E041E00E94870686E390E0EF
:102DA00064E041E00E94870686E390E060E040E056
:102DB0000E943B0786E390E061E040E00E943B0711
:102DC00086E390E062E040E00E943B0786E390E00B
:102DD00064E040E00E943B0789E390E063E041E06B
:102DE0000E94870689E390E063E040E00E943B0791
:102DF00089E390E062E041E00E94870689E390E089
:102E000062E040E00E943B0786E390E065E041E03D
:102E10000E94870686E390E065E040E00E943B0761
:102E200086E390E066E041E00E94870686E390E05A
:102E300066E040E00E943B07CF91DF910895DF9369
:102E4000CF9300D00F92CDB7DEB789838981282F29
:102E500030E03B832A838A819B818430910509F489
:102E6000ABC02A813B8125303105ECF48A819B81FE
:102E70008130910509F455C02A813B81223031050A
:102E80002CF48A819B81009799F12BC12A813B8187
:102E90002230310509F45EC08A819B81833091051F
:102EA00009F471C01EC12A813B812730310509F424
:102EB000CEC08A819B81883091056CF42A813B8148
:102EC0002530310509F491C08A819B8186309105B6
:102ED00009F4A4C006C12A813B812830310509F4D8
:102EE000CFC08A819B818930910509F4E2C0F9C085
:102EF00086E390E060E040E00E943B0786E390E0DC
:102F000061E040E00E943B0786E390E062E040E041
:102F10000E943B0786E390E064E040E00E943B07AC
:102F2000E0C086E390E060E041E00E943B0786E37A
:102F300090E061E040E00E943B0786E390E062E0C1
:102F400040E00E943B0786E390E064E040E00E949E
:102F50003B07C7C086E390E060E040E00E943B078B
:102F600086E390E061E041E00E943B0786E390E069
:102F700062E040E00E943B0786E390E064E040E0CE
:102F80000E943B07AEC086E390E060E041E00E9413
:102F90003B0786E390E061E041E00E943B0786E367
:102FA00090E062E040E00E943B0786E390E064E04E
:102FB00040E00E943B0795C086E390E060E040E07F
:102FC0000E943B0786E390E061E040E00E943B07FF
:102FD00086E390E062E041E00E943B0786E390E0F8
:102FE00064E040E00E943B077CC086E390E060E044
:102FF00041E00E943B0786E390E061E040E00E94F0
:103000003B0786E390E062E041E00E943B0786E3F5
:1030100090E064E040E00E943B0763C086E390E0FC
:1030200060E040E00E943B0786E390E061E041E021
:103030000E943B0786E390E062E041E00E943B078C
:1030400086E390E064E040E00E943B074AC086E3EC
:1030500090E060E041E00E943B0786E390E061E0A1
:1030600041E00E943B0786E390E062E041E00E947D
:103070003B0786E390E064E040E00E943B0731C0FC
:1030800086E390E060E040E00E943B0786E390E04A
:1030900061E040E00E943B0786E390E062E040E0B0
:1030A0000E943B0786E390E064E041E00E943B071A
:1030B00018C086E390E060E041E00E943B0786E3B1
:1030C00090E061E040E00E943B0786E390E062E030
:1030D00040E00E943B0786E390E064E041E00E940C
:1030E0003B070F900F900F90CF91DF910895DF93E2
:1030F000CF93CDB7DEB72E970FB6F894DEBF0FBED5
:10310000CDBF809180008F5F809380008091800090
:10311000813009F078C089E390E065E040E00E94EA
:103120003B0780E090E4ACE9B5E48B879C87AD87F2
:10313000BE876B857C858D859E8520E030E04AE7E3
:1031400055E40E941F02DC01CB018F839887A98779
:10315000BA876F81788589859A8520E030E040E8DC
:103160005FE30E94790388232CF481E090E09E8342
:103170008D833FC06F81788589859A8520E03FEFF8
:103180004FE757E40E94190318164CF56B857C85B0
:103190008D859E8520E030E040E251E40E941F02D0
:1031A000DC01CB01BC01CD010E944900DC01CB0157
:1031B0009E838D830FC080E991E09C838B838B81FC
:1031C0009C810197F1F79C838B838D819E81019770
:1031D0009E838D838D819E81009769F714C06F81D6
:1031E000788589859A850E944900DC01CB019E8300
:1031F0008D838D819E819A83898389819A810197AC
:10320000F1F79A8389832E960FB6F894DEBF0FBE2E
:10321000CDBFCF91DF910895DF93CF93CDB7DEB7C8
:1032200083E790E00E946F0B27E738E183E790E0A7
:10323000B9010E941E0E89E390E065E041E00E9422
:10324000870689E390E065E041E00E943B07F9CF03
:1032500097FB092E07260AD077FD04D00CD006D0A4
:1032600000201AF4709561957F4F0895F6F79095B8
:1032700081959F4F0895AA1BBB1B51E107C0AA1F50
:10328000BB1FA617B70710F0A61BB70B881F991F07
:103290005A95A9F780959095BC01CD0108952F927C
:1032A0003F924F925F926F927F928F929F92AF92D6
:1032B000BF92CF92DF92EF92FF920F931F93CF9323
:1032C000DF93CDB7DEB7CA1BDB0B0FB6F894DEBFBA
:1032D0000FBECDBF09942A88398848885F846E84E0
:1032E0007D848C849B84AA84B984C884DF80EE802A
:1032F000FD800C811B81AA81B981CE0FD11D0FB633
:10330000F894DEBF0FBECDBFED010895FB019F0114
:10331000E8944230C4F04532B4F44A3029F497FBC3
:103320001EF4909581959F4F642F77270E943B193B
:10333000805D8A330CF0895D8193CB010097A1F702
:1033400016F45DE251931082C9010C94A719DC01B7
:10335000FC01672F71917723E1F7329704C07C91CC
:103360006D9370836291AE17BF07C8F30895F89408
:02337000FFCF8D
:10337200000000000000000000010107000003023D
:0C338200FF00050000FF00000005000037
:00000001FF
